{
  "address": "0x2d4E903d56304Df0b93D3b919b8f610E17fC3E78",
  "abi": [
    {
      "inputs": [
        {
          "internalType": "bytes32",
          "name": "_constitutionHash",
          "type": "bytes32"
        },
        {
          "internalType": "string",
          "name": "_initialModel",
          "type": "string"
        },
        {
          "internalType": "address",
          "name": "_admin",
          "type": "address"
        }
      ],
      "stateMutability": "nonpayable",
      "type": "constructor"
    },
    {
      "inputs": [],
      "name": "ECDSAInvalidSignature",
      "type": "error"
    },
    {
      "inputs": [
        {
          "internalType": "uint256",
          "name": "length",
          "type": "uint256"
        }
      ],
      "name": "ECDSAInvalidSignatureLength",
      "type": "error"
    },
    {
      "inputs": [
        {
          "internalType": "bytes32",
          "name": "s",
          "type": "bytes32"
        }
      ],
      "name": "ECDSAInvalidSignatureS",
      "type": "error"
    },
    {
      "inputs": [],
      "name": "ReentrancyGuardReentrantCall",
      "type": "error"
    },
    {
      "anonymous": false,
      "inputs": [
        {
          "indexed": true,
          "internalType": "address",
          "name": "citizen",
          "type": "address"
        },
        {
          "indexed": false,
          "internalType": "uint256",
          "name": "totalCitizens",
          "type": "uint256"
        }
      ],
      "name": "CitizenDenounced",
      "type": "event"
    },
    {
      "anonymous": false,
      "inputs": [
        {
          "indexed": true,
          "internalType": "address",
          "name": "citizen",
          "type": "address"
        },
        {
          "indexed": false,
          "internalType": "uint256",
          "name": "totalCitizens",
          "type": "uint256"
        }
      ],
      "name": "CitizenJoined",
      "type": "event"
    },
    {
      "anonymous": false,
      "inputs": [
        {
          "indexed": false,
          "internalType": "bytes32",
          "name": "newHash",
          "type": "bytes32"
        }
      ],
      "name": "ConstitutionUpdated",
      "type": "event"
    },
    {
      "anonymous": false,
      "inputs": [
        {
          "indexed": false,
          "internalType": "string",
          "name": "newModel",
          "type": "string"
        }
      ],
      "name": "ModelUpdated",
      "type": "event"
    },
    {
      "anonymous": false,
      "inputs": [
        {
          "indexed": true,
          "internalType": "uint256",
          "name": "proposalId",
          "type": "uint256"
        },
        {
          "indexed": false,
          "internalType": "string",
          "name": "decision",
          "type": "string"
        },
        {
          "indexed": true,
          "internalType": "address",
          "name": "teeAddress",
          "type": "address"
        },
        {
          "indexed": false,
          "internalType": "bytes32",
          "name": "aiResponseHash",
          "type": "bytes32"
        }
      ],
      "name": "ProposalDecided",
      "type": "event"
    },
    {
      "anonymous": false,
      "inputs": [
        {
          "indexed": true,
          "internalType": "uint256",
          "name": "proposalId",
          "type": "uint256"
        },
        {
          "indexed": false,
          "internalType": "address",
          "name": "target",
          "type": "address"
        },
        {
          "indexed": false,
          "internalType": "uint256",
          "name": "value",
          "type": "uint256"
        }
      ],
      "name": "ProposalExecuted",
      "type": "event"
    },
    {
      "anonymous": false,
      "inputs": [
        {
          "indexed": true,
          "internalType": "uint256",
          "name": "proposalId",
          "type": "uint256"
        },
        {
          "indexed": true,
          "internalType": "address",
          "name": "citizen",
          "type": "address"
        },
        {
          "indexed": false,
          "internalType": "bool",
          "name": "hasAction",
          "type": "bool"
        },
        {
          "indexed": false,
          "internalType": "bytes32",
          "name": "proposalHash",
          "type": "bytes32"
        }
      ],
      "name": "ProposalSubmitted",
      "type": "event"
    },
    {
      "anonymous": false,
      "inputs": [
        {
          "indexed": true,
          "internalType": "address",
          "name": "signer",
          "type": "address"
        },
        {
          "indexed": false,
          "internalType": "string",
          "name": "model",
          "type": "string"
        },
        {
          "indexed": false,
          "internalType": "uint256",
          "name": "expiresAt",
          "type": "uint256"
        }
      ],
      "name": "TEERegistered",
      "type": "event"
    },
    {
      "anonymous": false,
      "inputs": [
        {
          "indexed": true,
          "internalType": "address",
          "name": "signer",
          "type": "address"
        }
      ],
      "name": "TEERevoked",
      "type": "event"
    },
    {
      "anonymous": false,
      "inputs": [
        {
          "indexed": true,
          "internalType": "address",
          "name": "from",
          "type": "address"
        },
        {
          "indexed": false,
          "internalType": "uint256",
          "name": "amount",
          "type": "uint256"
        }
      ],
      "name": "TreasuryDeposit",
      "type": "event"
    },
    {
      "inputs": [],
      "name": "JOIN_FEE",
      "outputs": [
        {
          "internalType": "uint256",
          "name": "",
          "type": "uint256"
        }
      ],
      "stateMutability": "view",
      "type": "function"
    },
    {
      "inputs": [],
      "name": "MAX_TREASURY_REQUEST_BPS",
      "outputs": [
        {
          "internalType": "uint256",
          "name": "",
          "type": "uint256"
        }
      ],
      "stateMutability": "view",
      "type": "function"
    },
    {
      "inputs": [],
      "name": "admin",
      "outputs": [
        {
          "internalType": "address",
          "name": "",
          "type": "address"
        }
      ],
      "stateMutability": "view",
      "type": "function"
    },
    {
      "inputs": [],
      "name": "attestationTTL",
      "outputs": [
        {
          "internalType": "uint256",
          "name": "",
          "type": "uint256"
        }
      ],
      "stateMutability": "view",
      "type": "function"
    },
    {
      "inputs": [],
      "name": "citizenCount",
      "outputs": [
        {
          "internalType": "uint256",
          "name": "",
          "type": "uint256"
        }
      ],
      "stateMutability": "view",
      "type": "function"
    },
    {
      "inputs": [
        {
          "internalType": "uint256",
          "name": "",
          "type": "uint256"
        }
      ],
      "name": "citizenList",
      "outputs": [
        {
          "internalType": "address",
          "name": "",
          "type": "address"
        }
      ],
      "stateMutability": "view",
      "type": "function"
    },
    {
      "inputs": [],
      "name": "constitutionHash",
      "outputs": [
        {
          "internalType": "bytes32",
          "name": "",
          "type": "bytes32"
        }
      ],
      "stateMutability": "view",
      "type": "function"
    },
    {
      "inputs": [],
      "name": "currentModel",
      "outputs": [
        {
          "internalType": "string",
          "name": "",
          "type": "string"
        }
      ],
      "stateMutability": "view",
      "type": "function"
    },
    {
      "inputs": [],
      "name": "denounce",
      "outputs": [],
      "stateMutability": "nonpayable",
      "type": "function"
    },
    {
      "inputs": [],
      "name": "donate",
      "outputs": [],
      "stateMutability": "payable",
      "type": "function"
    },
    {
      "inputs": [
        {
          "internalType": "uint256",
          "name": "proposalId",
          "type": "uint256"
        }
      ],
      "name": "executeProposal",
      "outputs": [],
      "stateMutability": "nonpayable",
      "type": "function"
    },
    {
      "inputs": [
        {
          "internalType": "uint256",
          "name": "proposalId",
          "type": "uint256"
        }
      ],
      "name": "getProposal",
      "outputs": [
        {
          "components": [
            {
              "internalType": "uint256",
              "name": "id",
              "type": "uint256"
            },
            {
              "internalType": "address",
              "name": "citizen",
              "type": "address"
            },
            {
              "internalType": "string",
              "name": "proposalText",
              "type": "string"
            },
            {
              "internalType": "bool",
              "name": "hasAction",
              "type": "bool"
            },
            {
              "internalType": "address",
              "name": "actionTarget",
              "type": "address"
            },
            {
              "internalType": "uint256",
              "name": "actionValue",
              "type": "uint256"
            },
            {
              "internalType": "bytes32",
              "name": "constitutionHash",
              "type": "bytes32"
            },
            {
              "internalType": "enum AvocadoNation.ProposalStatus",
              "name": "status",
              "type": "uint8"
            },
            {
              "internalType": "string",
              "name": "aiDecision",
              "type": "string"
            },
            {
              "internalType": "string",
              "name": "aiReasoning",
              "type": "string"
            },
            {
              "internalType": "bytes32",
              "name": "aiResponseHash",
              "type": "bytes32"
            },
            {
              "internalType": "bytes32",
              "name": "requestHash",
              "type": "bytes32"
            },
            {
              "internalType": "address",
              "name": "teeAddress",
              "type": "address"
            },
            {
              "internalType": "uint256",
              "name": "decidedAt",
              "type": "uint256"
            },
            {
              "internalType": "bool",
              "name": "executed",
              "type": "bool"
            }
          ],
          "internalType": "struct AvocadoNation.Proposal",
          "name": "",
          "type": "tuple"
        }
      ],
      "stateMutability": "view",
      "type": "function"
    },
    {
      "inputs": [
        {
          "internalType": "uint256",
          "name": "proposalId",
          "type": "uint256"
        }
      ],
      "name": "getProposalHash",
      "outputs": [
        {
          "internalType": "bytes32",
          "name": "",
          "type": "bytes32"
        }
      ],
      "stateMutability": "view",
      "type": "function"
    },
    {
      "inputs": [
        {
          "internalType": "address",
          "name": "",
          "type": "address"
        }
      ],
      "name": "isCitizen",
      "outputs": [
        {
          "internalType": "bool",
          "name": "",
          "type": "bool"
        }
      ],
      "stateMutability": "view",
      "type": "function"
    },
    {
      "inputs": [
        {
          "internalType": "address",
          "name": "signer",
          "type": "address"
        }
      ],
      "name": "isTEETrusted",
      "outputs": [
        {
          "internalType": "bool",
          "name": "",
          "type": "bool"
        }
      ],
      "stateMutability": "view",
      "type": "function"
    },
    {
      "inputs": [],
      "name": "join",
      "outputs": [],
      "stateMutability": "payable",
      "type": "function"
    },
    {
      "inputs": [
        {
          "internalType": "address",
          "name": "",
          "type": "address"
        }
      ],
      "name": "lastProposalTime",
      "outputs": [
        {
          "internalType": "uint256",
          "name": "",
          "type": "uint256"
        }
      ],
      "stateMutability": "view",
      "type": "function"
    },
    {
      "inputs": [],
      "name": "owner",
      "outputs": [
        {
          "internalType": "address",
          "name": "",
          "type": "address"
        }
      ],
      "stateMutability": "view",
      "type": "function"
    },
    {
      "inputs": [],
      "name": "proposalCooldown",
      "outputs": [
        {
          "internalType": "uint256",
          "name": "",
          "type": "uint256"
        }
      ],
      "stateMutability": "view",
      "type": "function"
    },
    {
      "inputs": [],
      "name": "proposalCount",
      "outputs": [
        {
          "internalType": "uint256",
          "name": "",
          "type": "uint256"
        }
      ],
      "stateMutability": "view",
      "type": "function"
    },
    {
      "inputs": [
        {
          "internalType": "uint256",
          "name": "",
          "type": "uint256"
        }
      ],
      "name": "proposals",
      "outputs": [
        {
          "internalType": "uint256",
          "name": "id",
          "type": "uint256"
        },
        {
          "internalType": "address",
          "name": "citizen",
          "type": "address"
        },
        {
          "internalType": "string",
          "name": "proposalText",
          "type": "string"
        },
        {
          "internalType": "bool",
          "name": "hasAction",
          "type": "bool"
        },
        {
          "internalType": "address",
          "name": "actionTarget",
          "type": "address"
        },
        {
          "internalType": "uint256",
          "name": "actionValue",
          "type": "uint256"
        },
        {
          "internalType": "bytes32",
          "name": "constitutionHash",
          "type": "bytes32"
        },
        {
          "internalType": "enum AvocadoNation.ProposalStatus",
          "name": "status",
          "type": "uint8"
        },
        {
          "internalType": "string",
          "name": "aiDecision",
          "type": "string"
        },
        {
          "internalType": "string",
          "name": "aiReasoning",
          "type": "string"
        },
        {
          "internalType": "bytes32",
          "name": "aiResponseHash",
          "type": "bytes32"
        },
        {
          "internalType": "bytes32",
          "name": "requestHash",
          "type": "bytes32"
        },
        {
          "internalType": "address",
          "name": "teeAddress",
          "type": "address"
        },
        {
          "internalType": "uint256",
          "name": "decidedAt",
          "type": "uint256"
        },
        {
          "internalType": "bool",
          "name": "executed",
          "type": "bool"
        }
      ],
      "stateMutability": "view",
      "type": "function"
    },
    {
      "inputs": [
        {
          "internalType": "address",
          "name": "signer",
          "type": "address"
        },
        {
          "internalType": "string",
          "name": "model",
          "type": "string"
        }
      ],
      "name": "registerTEESigner",
      "outputs": [],
      "stateMutability": "nonpayable",
      "type": "function"
    },
    {
      "inputs": [
        {
          "internalType": "address",
          "name": "signer",
          "type": "address"
        }
      ],
      "name": "revokeTEESigner",
      "outputs": [],
      "stateMutability": "nonpayable",
      "type": "function"
    },
    {
      "inputs": [
        {
          "internalType": "address",
          "name": "newAdmin",
          "type": "address"
        }
      ],
      "name": "setAdmin",
      "outputs": [],
      "stateMutability": "nonpayable",
      "type": "function"
    },
    {
      "inputs": [
        {
          "internalType": "uint256",
          "name": "ttl",
          "type": "uint256"
        }
      ],
      "name": "setAttestationTTL",
      "outputs": [],
      "stateMutability": "nonpayable",
      "type": "function"
    },
    {
      "inputs": [
        {
          "internalType": "uint256",
          "name": "cooldown",
          "type": "uint256"
        }
      ],
      "name": "setProposalCooldown",
      "outputs": [],
      "stateMutability": "nonpayable",
      "type": "function"
    },
    {
      "inputs": [
        {
          "internalType": "uint256",
          "name": "proposalId",
          "type": "uint256"
        },
        {
          "internalType": "string",
          "name": "decision",
          "type": "string"
        },
        {
          "internalType": "string",
          "name": "reasoning",
          "type": "string"
        },
        {
          "internalType": "bytes32",
          "name": "aiResponseHashHex",
          "type": "bytes32"
        },
        {
          "internalType": "bytes32",
          "name": "requestHashHex",
          "type": "bytes32"
        },
        {
          "internalType": "string",
          "name": "teeSignedText",
          "type": "string"
        },
        {
          "internalType": "bytes",
          "name": "teeSignature",
          "type": "bytes"
        }
      ],
      "name": "submitAIDecision",
      "outputs": [],
      "stateMutability": "nonpayable",
      "type": "function"
    },
    {
      "inputs": [
        {
          "internalType": "string",
          "name": "proposalText",
          "type": "string"
        },
        {
          "internalType": "bool",
          "name": "hasAction",
          "type": "bool"
        },
        {
          "internalType": "address",
          "name": "actionTarget",
          "type": "address"
        },
        {
          "internalType": "uint256",
          "name": "actionValue",
          "type": "uint256"
        }
      ],
      "name": "submitProposal",
      "outputs": [
        {
          "internalType": "uint256",
          "name": "",
          "type": "uint256"
        }
      ],
      "stateMutability": "nonpayable",
      "type": "function"
    },
    {
      "inputs": [],
      "name": "treasuryBalance",
      "outputs": [
        {
          "internalType": "uint256",
          "name": "",
          "type": "uint256"
        }
      ],
      "stateMutability": "view",
      "type": "function"
    },
    {
      "inputs": [
        {
          "internalType": "address",
          "name": "",
          "type": "address"
        }
      ],
      "name": "trustedSigners",
      "outputs": [
        {
          "internalType": "bool",
          "name": "trusted",
          "type": "bool"
        },
        {
          "internalType": "string",
          "name": "model",
          "type": "string"
        },
        {
          "internalType": "uint256",
          "name": "attestedAt",
          "type": "uint256"
        },
        {
          "internalType": "uint256",
          "name": "expiresAt",
          "type": "uint256"
        }
      ],
      "stateMutability": "view",
      "type": "function"
    },
    {
      "inputs": [
        {
          "internalType": "bytes32",
          "name": "newHash",
          "type": "bytes32"
        }
      ],
      "name": "updateConstitution",
      "outputs": [],
      "stateMutability": "nonpayable",
      "type": "function"
    },
    {
      "inputs": [
        {
          "internalType": "string",
          "name": "newModel",
          "type": "string"
        }
      ],
      "name": "updateModel",
      "outputs": [],
      "stateMutability": "nonpayable",
      "type": "function"
    },
    {
      "stateMutability": "payable",
      "type": "receive"
    }
  ],
  "transactionHash": "0xc25c093df1abe1aba07f16f5e4d10884094d2e6468575b9a355e89149b0a5b9c",
  "args": [
    "0x872274b36366416d977cd174c0db563ea296b5a6878f3a85a6963c797d6d4a9c",
    "openai/gpt-oss-120b",
    "0xF68B75C16B140EF5258132999E2B9692ECbcf819"
  ],
  "numDeployments": 1,
  "solcInputHash": "400551cdcdb9e63960bf5f73fa3ed836",
  "bytecode": "0x60806040523461027a576132e88038038061001981610294565b92833981019060608183031261027a57805160208201519091906001600160401b03811161027a57810183601f8201121561027a578051906001600160401b03821161025f57610072601f8301601f1916602001610294565b948286526020838301011161027a5760005b82811061027f575050600090840160200152604001516001600160a01b03811680820361027a576001600081905562015180600a55610e10600c5580546001600160a01b031916331790556102755750335b600280546001600160a01b0319166001600160a01b039290921691909117905560045580516001600160401b03811161025f57600354600181811c91168015610255575b602082101461023f57601f81116101da575b50602091601f82116001146101765791819260009261016b575b50508160011b916000199060031b1c1916176003555b60405161302e90816102ba8239f35b015190503880610146565b601f198216926003600052806000209160005b8581106101c2575083600195106101a9575b505050811b0160035561015c565b015160001960f88460031b161c1916905538808061019b565b91926020600181928685015181550194019201610189565b60036000527fc2575a0e9e593c00f959f8c92f12db2869c3395a3b0502d05e2516446f71f85b601f830160051c81019160208410610235575b601f0160051c01905b818110610229575061012c565b6000815560010161021c565b9091508190610213565b634e487b7160e01b600052602260045260246000fd5b90607f169061011a565b634e487b7160e01b600052604160045260246000fd5b6100d6565b600080fd5b80602080928401015182828901015201610084565b6040519190601f01601f191682016001600160401b0381118382101761025f5760405256fe60806040526004361015610047575b361561001957600080fd5b6040513481527fe3407208b14fa025330ca187030f118a1c0cdb604aba93ba45c862e6095aee2760203392a2005b60003560e01c8063013cf08b146127c4578063055c99db146127a65780630d61b519146124de578063178be3bb146124b05780632c46c88c14611cd25780632ec2d2c914611c41578063313dab2014611c25578063351a5f7b14611b405780634b80670f14611acd5780635b4c777d14611aaf5780635b7ad57814611a755780636169bc6a14611a335780636727c6c4146119d1578063704b6c02146119725780637cc27d451461182957806381cfd0b21461180b5780638d8025d8146115e85780638da5cb5b146115bf578063a749a46614610bdd578063a834725a14610a3c578063b688a363146108c8578063c0b226dc146108a5578063c7d93fd414610887578063c7f758a8146105e0578063c96a7e86146105c3578063ce82f56414610390578063da35c66414610372578063e36dec3b14610306578063ed88c68e14610291578063f3caad0314610252578063f7777688146101da5763f851a4400361000e57346101d55760003660031901126101d5576002546040516001600160a01b039091168152602090f35b600080fd5b346101d55760203660031901126101d5576001600160a01b036101fb612ace565b166000526009602052604060002060ff81541661021a60018301612995565b916003600282015491015461024360405194859415158552608060208601526080850190612a5c565b91604084015260608301520390f35b346101d55760203660031901126101d5576001600160a01b03610273612ace565b166000526005602052602060ff604060002054166040519015158152f35b60003660031901126101d55734156102d1576040513481527fe3407208b14fa025330ca187030f118a1c0cdb604aba93ba45c862e6095aee2760203392a2005b60405162461bcd60e51b815260206004820152600d60248201526c09aeae6e840e6cadcc8408aa89609b1b6044820152606490fd5b346101d55760203660031901126101d55760043561032f60018060a01b03600154163314612b7c565b610e10811061033d57600a55005b60405162461bcd60e51b815260206004820152600d60248201526c151513081d1bdbc81cda1bdc9d609a1b6044820152606490fd5b346101d55760003660031901126101d5576020600854604051908152f35b346101d55760403660031901126101d5576103a9612ace565b6024356001600160401b0381116101d5576103c8903690600401612aa1565b916103de60018060a01b03600254163314612ca7565b6001600160a01b0316906103f3821515612cdf565b6103ff600a5442612bf0565b9260405161040c81612959565b6001815261041b368385612c1e565b94602082019586526040820142815260608301918252856000526009602052610458604060002093511515849060ff801983541691151516179055565b6001830196519687516001600160401b0381116105ad576104838161047d8454612903565b84612c55565b6020601f821160011461052157816003959493926104db927faf63fa7d3472f8b8a6d2e2a2c72d97d259f59b72d488b04251a6dcc5d9c80d199b9c600092610516575b50508160011b916000199060031b1c19161790565b90555b516002840155519101556104f4600a5442612bf0565b61050b604051938493604085526040850191612bfd565b9060208301520390a2005b015190508c806104c6565b601f1982169983600052816000209a60005b81811061059557509a60019284926003989796957faf63fa7d3472f8b8a6d2e2a2c72d97d259f59b72d488b04251a6dcc5d9c80d199d9e1061057d575b505050811b0190556104de565b015160001983891b60f8161c191690558b8080610570565b838301518d556001909c019b60209384019301610533565b634e487b7160e01b600052604160045260246000fd5b346101d55760003660031901126101d55760206040516103e88152f35b346101d55760203660031901126101d5576004356040516106008161293d565b60008152602081016000905260408101606090526060810160009052608081016000905260a081016000905260c081016000905260e08101600090526101008101606090526101208101606090526101408101600090526101608101600090526101808101600090526101a08101600090526101c00160009052806000526007602052604060002054151561069490612d1a565b60005260076020526040600020604051906106ae8261293d565b8054825260018101546001600160a01b031660208301908152906106d460028201612995565b9260408101938452600382015491606082019260ff8116151584526080830190600160a01b600190039060081c168152600482015460a0840190815260058301549460c08501958652600684015460ff169060e086019161073481612a81565b825261074260078601612995565b610100870190815261075660088701612995565b9261012088019384526009870154986101408901998a52600a880154956101608a01968752600160a01b60019003600b8a015416976101808b01988952600c8a0154996101a08c019a8b52600d015460ff169a6101c081019b15158c526040519e8f9e8f9260208452516020840152600160a01b60019003905116604083015251606082016101e0905261020082016107ee91612a5c565b96511515608090910152516001600160a01b031660a08d01525160c08c01525160e08b01525161081d81612a81565b6101008a015251888203601f19016101208a015261083b9190612a5c565b9051878203601f19016101408901526108549190612a5c565b945161016087015251610180860152516001600160a01b03166101a0850152516101c08401525115156101e08301520390f35b346101d55760003660031901126101d5576020600454604051908152f35b346101d55760003660031901126101d557602060405167016345785d8a00008152f35b60003660031901126101d55733600052600560205260ff60406000205416610a035767016345785d8a000034036109b4573360005260056020526040600020600160ff19825416179055600654680100000000000000008110156105ad576109398160016109579301600655612ae4565b81546001600160a01b0360039290921b91821b19163390911b179055565b6006546040519081527f25c45ebba16b67eee42c0ce669ee1fc3a7982a485bac4ed20b864aee41f1801760203392a26040513481527fe3407208b14fa025330ca187030f118a1c0cdb604aba93ba45c862e6095aee2760203392a2005b60405162461bcd60e51b815260206004820152602160248201527f4d7573742073656e642065786163746c7920302e312045544820746f206a6f696044820152603760f91b6064820152608490fd5b60405162461bcd60e51b815260206004820152601160248201527020b63932b0b23c90309031b4ba34bd32b760791b6044820152606490fd5b346101d55760203660031901126101d55760043560005260076020526020604060002060405190610a6c8261293d565b8054825260018101546001600160a01b031683830190815291610bd290610a9560028401612995565b9060408101918252600384015490606081019460ff831615158652608082019260018060a01b039060081c16835260048101549160a0810192835260ff600d60058401549360c0840194855282600682015416610af181612a81565b60e0850152610b0260078201612995565b610100850152610b1460088201612995565b6101208501526009810154610140850152600a810154610160850152600b8101546001600160a01b0316610180850152600c8101546101a085015201541615156101c08201528051610b67901515612d1a565b519660018060a01b039051169351955115159260018060a01b039051169151905191610baf6040519788968b88019a8b52604088015260e06060880152610100870190612a5c565b93608086015260a085015260c084015260e083015203601f198101835282612974565b519020604051908152f35b346101d55760e03660031901126101d5576024356001600160401b0381116101d557610c0d903690600401612aa1565b6044356001600160401b0381116101d557610c2c903690600401612aa1565b60a4356001600160401b0381116101d557610c4b903690600401612aa1565b909360c4356001600160401b0381116101d557610c6c903690600401612aa1565b92610c8260018060a01b03600254163314612ca7565b610c8a612d57565b6004356000526007602052604060002096610ca788541515612b15565b60ff600689015416610cb881612a81565b61158357610cc736858b612c1e565b60208151910120947f5219209e083275171774dab1df80982e9df2096516f06319c5c6d71ae0a8480c861480968115611559575b501561151b576101f487116114e157610d15368484612c1e565b90815194859060009172184f03e93ff9f4daa797ed6e38ed64bf6a1f0160401b8810156114be575b806d04ee2d6d415b85acef8100000000600a9210156114a3575b662386f26fc1000081101561148f575b6305f5e10081101561147e575b61271081101561146f575b6064811015611461575b1015611457575b6001820196600a6021610dbb610da58b612b61565b9a610db36040519c8d612974565b808c52612b61565b60208b019590601f19013687378a01015b60001901916f181899199a1a9b1b9c1cb0b131b232b360811b8282061a835304908115610dfb57600a90610dcc565b5050610e8a96610e8194610e70610e7b94603a604051938492610e4b60208501977f19457468657265756d205369676e6564204d6573736167653a0a000000000000895251809285870190612a39565b8301610e608251809360208685019101612a39565b010103601f198101835282612974565b519020923691612c1e565b90612ea5565b90949194612ee1565b60018060a01b03831660005260096020526040600020600360405191610eaf83612959565b60ff81541615158352610ec460018201612995565b60208401526002810154604084015201549060608101918252511561141257514210156113cd57610ef6913691612c1e565b9660009687805b8a518110156113be57601d60f91b6001600160f81b0319610f1e838e612d79565b511614610f2d57600101610efd565b919293949596979850509460015b1561136b57610f4986612d8a565b978951878103908111610fc9576000198101908111610fc957610f6b90612d8a565b978a60005b8b8a82106113415750505060005b8951811015610fdf57600189018911610fc9576001906001600160f81b0319610fb38e610fad84868f01612bf0565b90612d79565b511660001a610fc2828d612d79565b5301610f7e565b634e487b7160e01b600052601160045260246000fd5b50888a610fed608435612dbc565b602081519101209060208151910120036112e95761100c606435612dbc565b6020815191012090602081519101200361129057600784016001600160401b0388116105ad57611046886110408354612903565b83612c55565b600088601f811160011461122d578061107592600091611222575b508160011b916000199060031b1c19161790565b90555b60088401916001600160401b0382116105ad5761109f826110998554612903565b85612c55565b600090601f831160011461119657827f4a7eefc7f4e58a0d8ded3050304e75f7d393af13e1ae844716a57d9de2a5ee7e9795936111549795936110f89360009261118b5750508160011b916000199060031b1c19161790565b90555b6064356009830155608435600a830155600b820180546001600160a01b0319166001600160a01b03881617905542600c8301551561117857600601805460ff191660011790555b60405194604086526040860191612bfd565b60643560208501526001600160a01b03909216926004359281900390a36001600055005b600601805460ff19166002179055611142565b013590508b806104c6565b8382526020822091601f198416815b81811061120a57509260019285927f4a7eefc7f4e58a0d8ded3050304e75f7d393af13e1ae844716a57d9de2a5ee7e9a98966111549a9896106111f0575b505050811b0190556110fb565b0135600019600384901b60f8161c191690558a80806111e3565b919360206001819287870135815501950192016111a5565b90508801358b611061565b50818152602081209089601f198116825b81811061127557501061125b575b5050600188811b019055611078565b87013560001960038b901b60f8161c19169055888061124c565b8a84013585556001909401936020938401938d93500161123e565b60405162461bcd60e51b815260206004820152602b60248201527f526573706f6e73652068617368206d69736d617463682077697468205445452060448201526a1cda59db9959081d195e1d60aa1b6064820152608490fd5b60405162461bcd60e51b815260206004820152602a60248201527f526571756573742068617368206d69736d6174636820776974682054454520736044820152691a59db9959081d195e1d60b21b6064820152608490fd5b611362826001946113578260ff60f81b92612d79565b511660001a92612d79565b53018b90610f70565b60405162461bcd60e51b815260206004820152602560248201527f4e6f20636f6c6f6e20736570617261746f7220696e20544545207369676e6564604482015264081d195e1d60da1b6064820152608490fd5b50959697949091929394610f3b565b60405162461bcd60e51b815260206004820152601760248201527f544545206174746573746174696f6e20657870697265640000000000000000006044820152606490fd5b60405162461bcd60e51b815260206004820152601860248201527f4e6f742061207472757374656420544545207369676e657200000000000000006044820152606490fd5b9060010190610d90565b606460029104930192610d89565b61271060049104930192610d7f565b6305f5e10060089104930192610d74565b662386f26fc1000060109104930192610d67565b6d04ee2d6d415b85acef810000000060209104930192610d57565b506040915072184f03e93ff9f4daa797ed6e38ed64bf6a1f0160401b8704610d3d565b60405162461bcd60e51b8152602060048201526012602482015271526561736f6e696e6720746f6f206c6f6e6760701b6044820152606490fd5b60405162461bcd60e51b8152602060048201526016602482015275496e76616c6964206465636973696f6e2076616c756560501b6044820152606490fd5b7f56d05910402dac18f69572e11f66162905dd2a05170c2975fe4e665791f81fa19150148b610cfb565b60405162461bcd60e51b815260206004820152601460248201527350726f706f73616c206e6f742070656e64696e6760601b6044820152606490fd5b346101d55760003660031901126101d5576001546040516001600160a01b039091168152602090f35b346101d55760203660031901126101d5576004356001600160401b0381116101d557611618903690600401612aa1565b9061162e60018060a01b03600154163314612b7c565b81156117d8576001600160401b0382116105ad5761164d600354612903565b601f8111611773575b50600091601f81116001146116d2576116a781807f061118a012a248778622835d3712439683073ac52d95d7f665076480ccce79f4956000916116c757508160011b916000199060031b1c19161790565b6003555b6116c2604051928392602084526020840191612bfd565b0390a1005b905084013586611061565b60038352601f198116927fc2575a0e9e593c00f959f8c92f12db2869c3395a3b0502d05e2516446f71f85b90805b85811061175b5750827f061118a012a248778622835d3712439683073ac52d95d7f665076480ccce79f49510611741575b5050600181811b016003556116ab565b830135600019600384901b60f8161c191690558380611731565b90916020600181928588013581550193019101611700565b60036000527fc2575a0e9e593c00f959f8c92f12db2869c3395a3b0502d05e2516446f71f85b601f840160051c810191602085106117ce575b601f0160051c01905b8181106117c25750611656565b600081556001016117b5565b90915081906117ac565b60405162461bcd60e51b815260206004820152600b60248201526a115b5c1d1e481b5bd9195b60aa1b6044820152606490fd5b346101d55760003660031901126101d5576020600a54604051908152f35b346101d55760003660031901126101d55733600052600560205261185460ff60406000205416612bb4565b336000526005602052604060002060ff19815416905560065460005b8181106118a9575b6006546040519081527f50b9a05074a5ecbea3cf1d6d379112a42bb29b6604f2571f1804b2ea6814ccfc60203392a2005b6118b281612ae4565b905460039190911b1c6001600160a01b031633146118d257600101611870565b6000198201918211610fc9576119056118ed61192993612ae4565b905460039190911b1c6001600160a01b031691612ae4565b81546001600160a01b0393841660039290921b91821b9390911b1916919091179055565b600654801561195c576000190161193f81612ae4565b81549060018060a01b039060031b1b191690556006558080611878565b634e487b7160e01b600052603160045260246000fd5b346101d55760203660031901126101d55761198b612ace565b6119a060018060a01b03600154163314612b7c565b6001600160a01b03166119b4811515612cdf565b6bffffffffffffffffffffffff60a01b6002541617600255600080f35b346101d55760203660031901126101d5576001600160a01b036119f2612ace565b1680600052600960205260ff6040600020541680611a18575b6020906040519015158152f35b50600052600960205260206003604060002001544210611a0b565b346101d55760203660031901126101d5576004356006548110156101d557611a5c602091612ae4565b905460405160039290921b1c6001600160a01b03168152f35b346101d55760203660031901126101d5576001600160a01b03611a96612ace565b16600052600b6020526020604060002054604051908152f35b346101d55760003660031901126101d5576020600654604051908152f35b346101d55760203660031901126101d557611ae6612ace565b611afb60018060a01b03600254163314612ca7565b6001600160a01b03166000818152600960205260408120805460ff191690557f4fd93bcef4c76674554e67672e6e30423a1d4b98953ed3c502b9393d0d2a83de9080a2005b346101d55760003660031901126101d5576040516000600354611b6281612903565b8084529060018116908115611c015750600114611ba2575b611b9e83611b8a81850382612974565b604051918291602083526020830190612a5c565b0390f35b600360009081527fc2575a0e9e593c00f959f8c92f12db2869c3395a3b0502d05e2516446f71f85b939250905b808210611be757509091508101602001611b8a611b7a565b919260018160209254838588010152019101909291611bcf565b60ff191660208086019190915291151560051b84019091019150611b8a9050611b7a565b346101d55760003660031901126101d557602047604051908152f35b346101d55760203660031901126101d557600435611c6a60018060a01b03600154163314612b7c565b8015611ca1576020817f732a21862410b95ccd2ea201ff74ed68673c4988bb5eb3a6df8a234bbfee1b5b92600455604051908152a1005b60405162461bcd60e51b81526020600482015260096024820152680b4cae4de40d0c2e6d60bb1b6044820152606490fd5b346101d55760803660031901126101d5576004356001600160401b0381116101d557611d02903690600401612aa1565b90602435801515908181036101d5576044356001600160a01b03811694908590036101d55760643591336000526005602052611d4560ff60406000205416612bb4565b811561247a5761138882116124415733600052600b602052611d6f604060002054600c5490612bf0565b421061240a571561236c5784156123365781156122f157476103e88102908082046103e81490151715610fc957612710900482116122ac575b6008546000198114610fc957600101938460085533600052600b60205242604060002055600454604051602081019087825233604082015260e06060820152611e2081611dfa61010082018888612bfd565b8960808301528b60a08301528860c08301528560e083015203601f198101835282612974565b51902093611e4660405193611e348561293d565b88855260208501953387523691612c1e565b9760408401988952866060850152608084015260a083015260c0820152600060e0820152602095604051611e7a8882612974565b60008152610100830152604051611e918882612974565b6000815261012083015260006101408301526000610160830152600061018083015260006101a083015260006101c083015285600052600787526040600020928251845560018060a01b03905116600184019060018060a01b03166bffffffffffffffffffffffff60a01b825416179055518051906001600160401b0382116105ad57611f2e82611f256002870154612903565b60028701612c55565b8790601f831160011461223b57611f5d9291600091836122305750508160011b916000199060031b1c19161790565b60028301555b60038201611f8360608301511515829060ff801983541691151516179055565b60808201518154610100600160a81b03191660089190911b610100600160a81b031617905560a0810151600483015560c0810151600583015560e08101516006830190611fcf81612a81565b611fd881612a81565b60ff80198354169116179055600782016101008201518051906001600160401b0382116105ad5761200d826110998554612903565b8890601f83116001146121c95761203c9291600091836121be5750508160011b916000199060031b1c19161790565b90555b600882016101208201518051906001600160401b0382116105ad57612068826110998554612903565b8890601f831160011461214c57926120a3836101c094612108989794600d976000926121415750508160011b916000199060031b1c19161790565b90555b6101408101516009850155610160810151600a850155610180810151600b850180546001600160a01b039092166001600160a01b03199092169190911790556101a0810151600c85015501519101805460ff191691151560ff16919091179055565b60405191825283820152817f5e771375b2d30fb4f0cd8c35418d6cacd0a7c1db19f5b4f0454bca41afc38cbe60403393a3604051908152f35b015190508d806104c6565b90601f19831691846000528a6000209260005b8c8282106121a857505093612108979693600d9693600193836101c0981061218f575b505050811b0190556120a6565b015160001960f88460031b161c191690558c8080612182565b600185968293968601518155019501930161215f565b015190508a806104c6565b90601f19831691846000528a6000209260005b8c82821061221a575050908460019594939210612201575b505050811b01905561203f565b015160001960f88460031b161c191690558980806121f4565b60018596829396860151815501950193016121dc565b0151905089806104c6565b91906002850160005288600020906000935b8a601f198516861061229357506001945083601f1981161061227a575b505050811b016002830155611f63565b015160001960f88460031b161c1916905588808061226a565b828201518455948501946001909301929091019061224d565b60405162461bcd60e51b815260206004820152601860248201527f45786365656473203130252074726561737572792063617000000000000000006044820152606490fd5b60405162461bcd60e51b815260206004820152601860248201527f416374696f6e2076616c7565206d757374206265203e203000000000000000006044820152606490fd5b60405162461bcd60e51b815260206004820152600e60248201526d125b9d985b1a59081d185c99d95d60921b6044820152606490fd5b846123bb578115611da857606460405162461bcd60e51b815260206004820152602060248201527f4e6f2076616c756520666f72206e6f6e2d616374696f6e2070726f706f73616c6044820152fd5b60405162461bcd60e51b815260206004820152602160248201527f4e6f2074617267657420666f72206e6f6e2d616374696f6e2070726f706f73616044820152601b60fa1b6064820152608490fd5b60405162461bcd60e51b815260206004820152600f60248201526e436f6f6c646f776e2061637469766560881b6044820152606490fd5b60405162461bcd60e51b815260206004820152601160248201527050726f706f73616c20746f6f206c6f6e6760781b6044820152606490fd5b60405162461bcd60e51b815260206004820152600e60248201526d115b5c1d1e481c1c9bdc1bdcd85b60921b6044820152606490fd5b346101d55760203660031901126101d5576124d660018060a01b03600154163314612b7c565b600435600c55005b346101d55760203660031901126101d5576004356124fa612d57565b806000526007602052604060002061251481541515612b15565b6006810190815491600160ff841661252b81612a81565b0361276957600382019182549360ff85161561272d57600d820180549260ff84166126f55747906103e88202918083046103e81490151715610fc957600401966127108854920482116126a2578147106126655760ff19948516600117909255929091166003179092556000918291829182919060081c6001600160a01b03165af13d15612660573d6125bd81612b61565b906125cb6040519283612974565b8152600060203d92013e5b15612625575490546040805160089390931c6001600160a01b0316835260208301919091527f3b7c90df35b419337cff0919fe91849006607bb66c4373623f06f9d48c1ebb9891a26001600055005b60405162461bcd60e51b8152602060048201526013602482015272115512081d1c985b9cd9995c8819985a5b1959606a1b6044820152606490fd5b6125d6565b60405162461bcd60e51b8152602060048201526015602482015274496e73756666696369656e7420747265617375727960581b6044820152606490fd5b60405162461bcd60e51b815260206004820152602560248201527f45786365656473203130252074726561737572792063617020617420657865636044820152643aba34b7b760d91b6064820152608490fd5b60405162461bcd60e51b815260206004820152601060248201526f105b1c9958591e48195e1958dd5d195960821b6044820152606490fd5b60405162461bcd60e51b81526020600482015260146024820152734e6f20616374696f6e20746f206578656375746560601b6044820152606490fd5b60405162461bcd60e51b8152602060048201526015602482015274141c9bdc1bdcd85b081b9bdd08185c1c1c9bdd9959605a1b6044820152606490fd5b346101d55760003660031901126101d5576020600c54604051908152f35b346101d55760203660031901126101d5576004356000908152600760205260409020805460018201546001600160a01b03169161280360028201612995565b600382015460048301546005840154600685015460ff16949261282860078501612995565b61283460088601612995565b91600986015497600a87015494600160a01b60019003600b8901541696600c89015498600d015460ff16996040519d8e809e81526020015260408d016101e090526101e08d0161288391612a5c565b60ff8516151560608e015260089490941c6001600160a01b031660808d015260a08c015260c08b01526128b581612a81565b60e08a01528881036101008a01526128cc91612a5c565b8781036101208901526128de91612a5c565b946101408701526101608601526101808501526101a084015215156101c08301520390f35b90600182811c92168015612933575b602083101461291d57565b634e487b7160e01b600052602260045260246000fd5b91607f1691612912565b6101e081019081106001600160401b038211176105ad57604052565b608081019081106001600160401b038211176105ad57604052565b90601f801991011681019081106001600160401b038211176105ad57604052565b90604051918260008254926129a984612903565b8084529360018116908115612a1757506001146129d0575b506129ce92500383612974565b565b90506000929192526020600020906000915b8183106129fb5750509060206129ce92820101386129c1565b60209193508060019154838589010152019101909184926129e2565b9050602092506129ce94915060ff191682840152151560051b820101386129c1565b60005b838110612a4c5750506000910152565b8181015183820152602001612a3c565b90602091612a7581518092818552858086019101612a39565b601f01601f1916010190565b60041115612a8b57565b634e487b7160e01b600052602160045260246000fd5b9181601f840112156101d5578235916001600160401b0383116101d557602083818601950101116101d557565b600435906001600160a01b03821682036101d557565b600654811015612aff57600660005260206000200190600090565b634e487b7160e01b600052603260045260246000fd5b15612b1c57565b60405162461bcd60e51b815260206004820152601760248201527f50726f706f73616c20646f6573206e6f742065786973740000000000000000006044820152606490fd5b6001600160401b0381116105ad57601f01601f191660200190565b15612b8357565b60405162461bcd60e51b81526020600482015260096024820152682737ba1037bbb732b960b91b6044820152606490fd5b15612bbb57565b60405162461bcd60e51b815260206004820152600d60248201526c2737ba10309031b4ba34bd32b760991b6044820152606490fd5b91908201809211610fc957565b908060209392818452848401376000828201840152601f01601f1916010190565b929192612c2a82612b61565b91612c386040519384612974565b8294818452818301116101d5578281602093846000960137010152565b601f8211612c6257505050565b6000526020600020906020601f840160051c83019310612c9d575b601f0160051c01905b818110612c91575050565b60008155600101612c86565b9091508190612c7d565b15612cae57565b60405162461bcd60e51b81526020600482015260096024820152682737ba1030b236b4b760b91b6044820152606490fd5b15612ce657565b60405162461bcd60e51b815260206004820152600c60248201526b5a65726f206164647265737360a01b6044820152606490fd5b15612d2157565b60405162461bcd60e51b815260206004820152600e60248201526d111bd95cc81b9bdd08195e1a5cdd60921b6044820152606490fd5b600260005414612d68576002600055565b633ee5aeb560e01b60005260046000fd5b908151811015612aff570160200190565b90612d9482612b61565b612da16040519182612974565b8281528092612db2601f1991612b61565b0190602036910137565b604090815190612dcc8383612974565b601082526f181899199a1a9b1b9c1cb0b131b232b360811b6020830152825192612df7606085612974565b8352604036602085013760005b60208110612e125750505090565b81811a6001600160f81b0319612e2f600483901c60ff1686612d79565b5116908260011b9183830460021484151715610fc95760001a612e528388612d79565b536001600160f81b031990612e6a90600f1686612d79565b5116600060018301809311612e91576001939291612e8a911a9187612d79565b5301612e04565b634e487b7160e01b81526011600452602490fd5b8151919060418303612ed657612ecf92506020820151906060604084015193015160001a90612f63565b9192909190565b505060009160029190565b612eea81612a81565b80612ef3575050565b612efc81612a81565b60018103612f155763f645eedf60e01b60005260046000fd5b612f1e81612a81565b60028103612f3b575063fce698f760e01b60005260045260246000fd5b600390612f4781612a81565b14612f4f5750565b6335e2f38360e21b60005260045260246000fd5b91907f7fffffffffffffffffffffffffffffff5d576e7357a4501ddfe92f46681b20a08411612fec579160209360809260ff60009560405194855216868401526040830152606082015282805260015afa15612fe0576000516001600160a01b03811615612fd45790600090600090565b50600090600190600090565b6040513d6000823e3d90fd5b5050506000916003919056fea2646970667358221220e45baf12e9bd8a88e5f8c6307ba36b3eaf7569554985e2e1a98461298f7c3d0f64736f6c634300081e0033",
  "devdoc": {
    "errors": {
      "ECDSAInvalidSignature()": [
        {
          "details": "The signature derives the `address(0)`."
        }
      ],
      "ECDSAInvalidSignatureLength(uint256)": [
        {
          "details": "The signature has an invalid length."
        }
      ],
      "ECDSAInvalidSignatureS(bytes32)": [
        {
          "details": "The signature has an S value that is in the upper half order."
        }
      ],
      "ReentrancyGuardReentrantCall()": [
        {
          "details": "Unauthorized reentrant call."
        }
      ]
    },
    "kind": "dev",
    "methods": {
      "constructor": {
        "params": {
          "_constitutionHash": "keccak256 of the constitution string",
          "_initialModel": "RedPill model string e.g. \"openai/gpt-oss-120b\""
        }
      },
      "submitProposal(string,bool,address,uint256)": {
        "params": {
          "actionTarget": "ETH recipient address (ignored if hasAction = false)",
          "actionValue": "ETH amount in wei (ignored if hasAction = false)",
          "hasAction": "True if this proposal requests an onchain action on approval",
          "proposalText": "The proposal in plain text (stored onchain for auditability)"
        }
      }
    },
    "title": "AvocadoNation",
    "version": 1
  },
  "userdoc": {
    "kind": "user",
    "methods": {
      "JOIN_FEE()": {
        "notice": "Non-refundable fee to join — goes directly to the treasury"
      },
      "MAX_TREASURY_REQUEST_BPS()": {
        "notice": "Maximum ETH a single proposal can request (10% of treasury)"
      },
      "denounce()": {
        "notice": "Renounce your citizenship. Irreversible — you lose citizen rights.         The join fee is not refunded."
      },
      "donate()": {
        "notice": "Donate ETH to the treasury. Anyone can donate."
      },
      "executeProposal(uint256)": {
        "notice": "Execute the onchain action for an approved proposal."
      },
      "join()": {
        "notice": "Join the nation. Requires a non-refundable 0.1 ETH fee that goes to the treasury."
      },
      "submitAIDecision(uint256,string,string,bytes32,bytes32,string,bytes)": {
        "notice": "Submit the AI governance decision for a proposal."
      },
      "submitProposal(string,bool,address,uint256)": {
        "notice": "Submit a governance proposal."
      }
    },
    "notice": "A governance contract where an AI evaluates proposals against a         constitution. AI decisions are cryptographically verified via         RedPill/Phala TEE attestation. No human voting. Key security invariants:  1. Only TEE-attested signers (registered by owner after offchain attestation)     can produce valid governance proofs.  2. The AI response JSON is hashed and stored. The contract verifies the     proposal action parameters match exactly what the AI approved — preventing     any user from substituting different parameters after the AI decision.  3. Treasury actions only execute if the AI approved them AND the caller     provides the exact parameters the AI approved, verified by hash.  4. Re-entrancy is prevented on all ETH-moving functions.",
    "version": 1
  },
  "storageLayout": {
    "storage": [
      {
        "astId": 10,
        "contract": "contracts/AvocadoNation.sol:AvocadoNation",
        "label": "_status",
        "offset": 0,
        "slot": "0",
        "type": "t_uint256"
      },
      {
        "astId": 1972,
        "contract": "contracts/AvocadoNation.sol:AvocadoNation",
        "label": "owner",
        "offset": 0,
        "slot": "1",
        "type": "t_address"
      },
      {
        "astId": 1974,
        "contract": "contracts/AvocadoNation.sol:AvocadoNation",
        "label": "admin",
        "offset": 0,
        "slot": "2",
        "type": "t_address"
      },
      {
        "astId": 1976,
        "contract": "contracts/AvocadoNation.sol:AvocadoNation",
        "label": "currentModel",
        "offset": 0,
        "slot": "3",
        "type": "t_string_storage"
      },
      {
        "astId": 1978,
        "contract": "contracts/AvocadoNation.sol:AvocadoNation",
        "label": "constitutionHash",
        "offset": 0,
        "slot": "4",
        "type": "t_bytes32"
      },
      {
        "astId": 1982,
        "contract": "contracts/AvocadoNation.sol:AvocadoNation",
        "label": "isCitizen",
        "offset": 0,
        "slot": "5",
        "type": "t_mapping(t_address,t_bool)"
      },
      {
        "astId": 1985,
        "contract": "contracts/AvocadoNation.sol:AvocadoNation",
        "label": "citizenList",
        "offset": 0,
        "slot": "6",
        "type": "t_array(t_address)dyn_storage"
      },
      {
        "astId": 1990,
        "contract": "contracts/AvocadoNation.sol:AvocadoNation",
        "label": "proposals",
        "offset": 0,
        "slot": "7",
        "type": "t_mapping(t_uint256,t_struct(Proposal)1965_storage)"
      },
      {
        "astId": 1992,
        "contract": "contracts/AvocadoNation.sol:AvocadoNation",
        "label": "proposalCount",
        "offset": 0,
        "slot": "8",
        "type": "t_uint256"
      },
      {
        "astId": 1997,
        "contract": "contracts/AvocadoNation.sol:AvocadoNation",
        "label": "trustedSigners",
        "offset": 0,
        "slot": "9",
        "type": "t_mapping(t_address,t_struct(TEESigner)1932_storage)"
      },
      {
        "astId": 2000,
        "contract": "contracts/AvocadoNation.sol:AvocadoNation",
        "label": "attestationTTL",
        "offset": 0,
        "slot": "10",
        "type": "t_uint256"
      },
      {
        "astId": 2004,
        "contract": "contracts/AvocadoNation.sol:AvocadoNation",
        "label": "lastProposalTime",
        "offset": 0,
        "slot": "11",
        "type": "t_mapping(t_address,t_uint256)"
      },
      {
        "astId": 2007,
        "contract": "contracts/AvocadoNation.sol:AvocadoNation",
        "label": "proposalCooldown",
        "offset": 0,
        "slot": "12",
        "type": "t_uint256"
      }
    ],
    "types": {
      "t_address": {
        "encoding": "inplace",
        "label": "address",
        "numberOfBytes": "20"
      },
      "t_array(t_address)dyn_storage": {
        "base": "t_address",
        "encoding": "dynamic_array",
        "label": "address[]",
        "numberOfBytes": "32"
      },
      "t_bool": {
        "encoding": "inplace",
        "label": "bool",
        "numberOfBytes": "1"
      },
      "t_bytes32": {
        "encoding": "inplace",
        "label": "bytes32",
        "numberOfBytes": "32"
      },
      "t_enum(ProposalStatus)1970": {
        "encoding": "inplace",
        "label": "enum AvocadoNation.ProposalStatus",
        "numberOfBytes": "1"
      },
      "t_mapping(t_address,t_bool)": {
        "encoding": "mapping",
        "key": "t_address",
        "label": "mapping(address => bool)",
        "numberOfBytes": "32",
        "value": "t_bool"
      },
      "t_mapping(t_address,t_struct(TEESigner)1932_storage)": {
        "encoding": "mapping",
        "key": "t_address",
        "label": "mapping(address => struct AvocadoNation.TEESigner)",
        "numberOfBytes": "32",
        "value": "t_struct(TEESigner)1932_storage"
      },
      "t_mapping(t_address,t_uint256)": {
        "encoding": "mapping",
        "key": "t_address",
        "label": "mapping(address => uint256)",
        "numberOfBytes": "32",
        "value": "t_uint256"
      },
      "t_mapping(t_uint256,t_struct(Proposal)1965_storage)": {
        "encoding": "mapping",
        "key": "t_uint256",
        "label": "mapping(uint256 => struct AvocadoNation.Proposal)",
        "numberOfBytes": "32",
        "value": "t_struct(Proposal)1965_storage"
      },
      "t_string_storage": {
        "encoding": "bytes",
        "label": "string",
        "numberOfBytes": "32"
      },
      "t_struct(Proposal)1965_storage": {
        "encoding": "inplace",
        "label": "struct AvocadoNation.Proposal",
        "members": [
          {
            "astId": 1935,
            "contract": "contracts/AvocadoNation.sol:AvocadoNation",
            "label": "id",
            "offset": 0,
            "slot": "0",
            "type": "t_uint256"
          },
          {
            "astId": 1937,
            "contract": "contracts/AvocadoNation.sol:AvocadoNation",
            "label": "citizen",
            "offset": 0,
            "slot": "1",
            "type": "t_address"
          },
          {
            "astId": 1939,
            "contract": "contracts/AvocadoNation.sol:AvocadoNation",
            "label": "proposalText",
            "offset": 0,
            "slot": "2",
            "type": "t_string_storage"
          },
          {
            "astId": 1941,
            "contract": "contracts/AvocadoNation.sol:AvocadoNation",
            "label": "hasAction",
            "offset": 0,
            "slot": "3",
            "type": "t_bool"
          },
          {
            "astId": 1943,
            "contract": "contracts/AvocadoNation.sol:AvocadoNation",
            "label": "actionTarget",
            "offset": 1,
            "slot": "3",
            "type": "t_address"
          },
          {
            "astId": 1945,
            "contract": "contracts/AvocadoNation.sol:AvocadoNation",
            "label": "actionValue",
            "offset": 0,
            "slot": "4",
            "type": "t_uint256"
          },
          {
            "astId": 1947,
            "contract": "contracts/AvocadoNation.sol:AvocadoNation",
            "label": "constitutionHash",
            "offset": 0,
            "slot": "5",
            "type": "t_bytes32"
          },
          {
            "astId": 1950,
            "contract": "contracts/AvocadoNation.sol:AvocadoNation",
            "label": "status",
            "offset": 0,
            "slot": "6",
            "type": "t_enum(ProposalStatus)1970"
          },
          {
            "astId": 1952,
            "contract": "contracts/AvocadoNation.sol:AvocadoNation",
            "label": "aiDecision",
            "offset": 0,
            "slot": "7",
            "type": "t_string_storage"
          },
          {
            "astId": 1954,
            "contract": "contracts/AvocadoNation.sol:AvocadoNation",
            "label": "aiReasoning",
            "offset": 0,
            "slot": "8",
            "type": "t_string_storage"
          },
          {
            "astId": 1956,
            "contract": "contracts/AvocadoNation.sol:AvocadoNation",
            "label": "aiResponseHash",
            "offset": 0,
            "slot": "9",
            "type": "t_bytes32"
          },
          {
            "astId": 1958,
            "contract": "contracts/AvocadoNation.sol:AvocadoNation",
            "label": "requestHash",
            "offset": 0,
            "slot": "10",
            "type": "t_bytes32"
          },
          {
            "astId": 1960,
            "contract": "contracts/AvocadoNation.sol:AvocadoNation",
            "label": "teeAddress",
            "offset": 0,
            "slot": "11",
            "type": "t_address"
          },
          {
            "astId": 1962,
            "contract": "contracts/AvocadoNation.sol:AvocadoNation",
            "label": "decidedAt",
            "offset": 0,
            "slot": "12",
            "type": "t_uint256"
          },
          {
            "astId": 1964,
            "contract": "contracts/AvocadoNation.sol:AvocadoNation",
            "label": "executed",
            "offset": 0,
            "slot": "13",
            "type": "t_bool"
          }
        ],
        "numberOfBytes": "448"
      },
      "t_struct(TEESigner)1932_storage": {
        "encoding": "inplace",
        "label": "struct AvocadoNation.TEESigner",
        "members": [
          {
            "astId": 1925,
            "contract": "contracts/AvocadoNation.sol:AvocadoNation",
            "label": "trusted",
            "offset": 0,
            "slot": "0",
            "type": "t_bool"
          },
          {
            "astId": 1927,
            "contract": "contracts/AvocadoNation.sol:AvocadoNation",
            "label": "model",
            "offset": 0,
            "slot": "1",
            "type": "t_string_storage"
          },
          {
            "astId": 1929,
            "contract": "contracts/AvocadoNation.sol:AvocadoNation",
            "label": "attestedAt",
            "offset": 0,
            "slot": "2",
            "type": "t_uint256"
          },
          {
            "astId": 1931,
            "contract": "contracts/AvocadoNation.sol:AvocadoNation",
            "label": "expiresAt",
            "offset": 0,
            "slot": "3",
            "type": "t_uint256"
          }
        ],
        "numberOfBytes": "128"
      },
      "t_uint256": {
        "encoding": "inplace",
        "label": "uint256",
        "numberOfBytes": "32"
      }
    }
  }
}